:020000040800F2
:10000000700C0020D12E0008DD0B0008DF0B00086B
:10001000E30B0008E70B0008EB0B000800000000F2
:10002000000000000000000000000000EF0B0008CE
:10003000F10B000800000000F30B0008F50B0008AE
:10004000EB2E0008EB2E0008EB2E0008EB2E00082C
:10005000EB2E0008EB2E0008EB2E0008EB2E00081C
:10006000EB2E0008EB2E0008EB2E0008EB2E00080C
:10007000EB2E0008EB2E0008EB2E0008EB2E0008FC
:10008000EB2E0008EB2E0008EB2E0008EB2E0008EC
:10009000EB2E0008EB2E0008EB2E0008EB2E0008DC
:1000A000EB2E0008EB2E0008EB2E0008EB2E0008CC
:1000B000F70B0008190C0008990C0008EB2E00083B
:1000C000EB2E0008EB2E0008EB2E0008EB2E0008AC
:1000D000EB2E0008B30C0008F70C0008EB2E00080C
:1000E000EB2E0008EB2E0008EB2E0008DFF80CD0FA
:1000F00002F000FF004800471B010008700C0020C0
:10010000014607E041F2883200E0521E002AFCD18D
:100110004B1E99B20029F5DC704700F01FFE00F07D
:1001200085FE01F063F800F039FF00F035F900F0CA
:1001300080F94FF47A7000F04DFE4FF47A7000F0C1
:1001400049FE15A000F015FA13A000F012FA00F015
:100150006BF800F093F800F0B9F84FF47A7000F003
:1001600039FE4FF47A7000F035FE4FF47A7000F0EB
:1001700031FE10E000F0C2FC00F0ECFC0948007811
:1001800048B10948007830B90021084801F090FED4
:10019000002004490870EDE7313233343536373802
:1001A0000000000023000020220000200008004082
:1001B00008B54FF4A06002F05DFB1C208DF8000034
:1001C00001208DF8010000208DF8020001208DF83B
:1001D0000300684602F053FB08BD08B54FF4A06069
:1001E00002F048FB1D208DF8000001208DF8010071
:1001F0008DF802008DF80300684602F040FB08BD50
:1002000008B54FF4A06002F035FB1E208DF8000009
:1002100002208DF801008DF8020001208DF8030006
:10022000684602F02CFB08BD0EB50121084602F01D
:1002300006FD4FF0804001F00BFA41F28730ADF837
:1002400004004720ADF800000020ADF80600ADF82E
:10025000020069464FF0804001F0CEFA0121880784
:1002600002F0ECF801221146900701F03CFE01215A
:10027000880701F01DFEFFF79BFF0EBD0EB50121A3
:10028000022002F0DCFC254801F0E2F940F2CF70D8
:10029000ADF804004720ADF800000020ADF80600DE
:1002A000ADF8020069461D4801F0A6FA01211B487D
:1002B00002F0C4F801221146184801F014FE012191
:1002C000164801F0F5FDFFF788FF0EBD0EB50121C0
:1002D000042002F0B4FC124801F0BAF9C720ADF8CE
:1002E00004004720ADF800000020ADF80600ADF88E
:1002F000020069460A4801F07FFA0121084802F02D
:100300009DF801221146064801F0EDFD0021044848
:1003100001F0CEFDFFF774FF0EBD000000040040A9
:10032000000800400020F949088048808880C88083
:100330000872487270470020F5490880488088801C
:10034000C88008724872704708B54FF4A06002F088
:1003500091FA25208DF8000000208DF801008DF81D
:10036000020001208DF80300684602F088FA08BDFB
:1003700008B54FF4A06002F07DFA26208DF8000049
:1003800000208DF8010001208DF802008DF8030097
:10039000684602F074FA08BD00B585B0012144F248
:1003A000040002F03FFC4FF40070ADF8100018207C
:1003B0008DF8130003208DF8120004A9D54800F031
:1003C000FBFF4FF48060ADF8100004208DF813009F
:1003D00004A9D04800F0F0FF4FF4964000900020B0
:1003E000ADF80400ADF80600ADF80800ADF80C005B
:1003F0000C20ADF80A006946C74802F07AF840219F
:10040000C54802F0EAF9012240F22551C24802F043
:1004100008F9012240F22661BF4802F002F90121E9
:10042000BD4802F0F2F8FFF78FFFFFF77BFF05B042
:1004300000BD00B587B00121042002F0F3FB0121CB
:10044000480402F0FCFB0420ADF8180003208DF8EE
:100450001A0018208DF81B0006A9AE4800F0ACFF6A
:100460000820ADF8180004208DF81B0006A9A94843
:1004700000F0A2FF4FF4A06002F0FCF926208DF8F6
:10048000140001208DF8150003208DF816000120BE
:100490008DF8170005A802F0F2F94FF4964001908C
:1004A0000020ADF80800ADF80A00ADF80C00ADF87A
:1004B00010000C20ADF80E0001A9984802F019F8C0
:1004C000012240F22551954802F0ABF8012240F29A
:1004D0002661924802F0A5F84021904802F07DF98B
:1004E00001218E4802F091F8FFF742FFFFF723FF4A
:1004F00007B000BD70B504460D46E1B2864802F073
:10050000F1F800BF8021844802F05AF90028F9D0A0
:10051000204670BD10B5044621467F4802F0E2F83F
:1005200000BF80217C4802F04BF90028F9D010BDB3
:1005300010B504460BE014F8011B774802F0D2F81E
:1005400000BF8021744802F03BF90028F9D02078E0
:100550000028F0D110BD10B5044621466F4802F0C6
:10056000C1F800BF80216D4802F02AF90028F9D0B7
:1005700010BD10B504460BE014F8011B674802F0EB
:10058000B1F800BF8021654802F01AF90028F9D0BF
:1005900020780028F0D110BD10B55C4800885B4978
:1005A000898888420CDA594802880A30815C5A48A6
:1005B00002F098F855480088401C5449088003E030
:1005C000002052498880088010BD10B5504800882E
:1005D0004F49898888420CDA4D4802880A30815C8C
:1005E0004E4802F07FF84A480088401C484908807D
:1005F00003E0002046498880088010BD4349497ABD
:10060000002937D14149498831B901213F4A117246
:100610006421434A11700EE04149097800290ADC3F
:1006200001213A4A51720021117211464988D18044
:1006300000215180704735494A8801F20A218854C7
:1006400032494988491C314A518011464988B1F5DF
:10065000007F16DB40F2FF115180012151721146DB
:100660004988491CD18000215180117264212C4A93
:10067000117006E00021254A11726421284A117088
:10068000D8E700BFD6E72249497A002937D1204967
:10069000498831B901211E4A11723221214A117053
:1006A0000EE02049097800290ADC0121184A51721C
:1006B0000021117211464988D18000215180704774
:1006C00013494A8801F20A21885411494988491C72
:1006D0000F4A518011464988B1F5007F24DB40F272
:1006E000FF1151800121517211464988491CD18066
:1006F00000215180117232210A4A117014E0002148
:10070000034A11723221074A1170D8E74C000020C9
:100710005604002000080140003801400044004019
:10072000000000200100002000BFC8E770B5FA48B3
:10073000C088102801D0002070BDF748C088811EF5
:10074000F64800F049FD0546F348C088401EF349CD
:100750000A5CF148C088801E085C02EB0020A842B9
:1007600078D1002405E0ED48005DED490855601C96
:10077000C4B2102CF7DBEA48807920B1012803D0FD
:1007800002280DD104E00CE00020E549887108E062
:10079000E348C079E34908700020E149887100E02E
:1007A00000BF00BFDE48007A30B1012805D0022822
:1007B0000BD003281CD113E01BE01021DA4800F015
:1007C000A6FE0020D649087213E01021D64800F09A
:1007D000A0FE0120D54908700020D149087208E028
:1007E000CF48407AD24908700020CD49087200E015
:1007F00000BF00BFCA48807A30B1012805D0022866
:100800000BD003281CD113E01BE02021C64800F0C8
:100810007EFE0020C249887213E02021C24800F009
:1008200078FE0120C34908700020BD49887208E0A5
:10083000BB48C07AC04908700020B949887200E0FE
:1008400000BF00BFB648007B28B1012804D00228B1
:1008500012D109E014E010E0B148007BB7490870FC
:100860000020AF49087308E0AD48007BB349087029
:100870000020AB49087300E000BF00BF01205BE728
:10088000002059E710B5AE48C088102801DA0020D2
:1008900010BDAB48C088811EAA4800F09DFC0446EC
:1008A000A748C088401EA7490A5CA548C088801E8A
:1008B000085C02EB0020A0427ED10020A049888085
:1008C000EE22084681888088401C9D4B988003F169
:1008D0000A004254EE210A3882888088401C9880A1
:1008E00003F10A0081540A3882888088401C98806D
:1008F00003F10A0081540A3882888088401C98805D
:1009000003F10A00815459210A3882888088401CEA
:10091000988003F10A00815401210A388288808876
:10092000401C988003F10A0081540A3890F8121292
:1009300082888088401C988003F10A00815400223C
:100940000A3881888088401C988003F10A0042544C
:100950000A388088011F03F10E0000F03DFC0446B8
:10096000C4F30621764882888088401C744B9880A6
:1009700003F10A00815404F07F010A3882888088DC
:10098000401C988003F10A00815401206B490870D3
:10099000022048704FF47A708880800048800020E0
:1009A00019460880084602880088401C188001F11A
:1009B0000A00815C644800E003E001F093FE01203E
:1009C00066E700205E498880EE215D488288808845
:1009D000401C5B4B988003F10A0081540A388288DE
:1009E0008088401C988003F10A0081540A3882886C
:1009F0008088401C988003F10A0081540A3882885C
:100A00008088401C988003F10A00815452210A38E2
:100A100082888088401C988003F10A00815400215C
:100A20000A3882888088401C988003F10A0081542B
:100A300005210A3882888088401C988003F10A00CA
:100A4000815400210A3882888088401C988003F1F4
:100A50000A0081540A3881880E3000F0BDFB04463C
:100A6000C4F30621364882888088401C344B988025
:100A700003F10A00815404F07F010A3882888088DB
:100A8000401C988003F10A00815400201946088018
:100A9000084602880088401C188001F10A00815C29
:100AA000294801F01FFE0020F2E610B5002406E000
:100AB0002448015D18480A300155601CC4B2204822
:100AC000C088A042F4DC1E48C088134988800020FA
:100AD0001B49C88032201D49087000200E494880FB
:100AE0000880084602880088401C0B46188001F1E7
:100AF0000A00815C164801F0F5FD10BD10B51048E4
:100B0000407A012807D1FFF7BDFE08B1FFF7CDFFFE
:100B100000200B49487210BD4C00002056020020F6
:100B20006008002022000020000801401000002082
:100B30000E000020110000200F00002018000020EF
:100B40005604002060060020004400400100002000
:100B50000038014010B51B48407A01282FD1FFF71B
:100B6000E5FD40B300201749C8806420164908708D
:100B70001648007818B10121154801F099F905E0EF
:100B80000020144948704FF47A7088800F4800782C
:100B90000028F5D10221104800F0B9FC00210C48D2
:100BA00001F086F9642000F015F901200949487028
:100BB0004FF47A60488000200249487200E010BD7E
:100BC00000BFFCE74C0000200000002022000020B5
:100BD0000008004018000020000C0140704700BFD2
:100BE000FEE700BFFEE700BFFEE700BFFEE770477D
:100BF00070477047704710B50121880701F021FC4C
:100C000048B100F007FA00F02EFB00F07CF901215A
:100C1000880701F027FC10BD10B50121474801F0FD
:100C200010FC002837D04648007A012815D14548E5
:100C30000078002805DD43480078401E41490870CF
:100C40000BE000203F49087001203D4948720846EA
:100C50004088C8800020087248803B48007A0128FC
:100C600015D13A480078002805DD38480078401E44
:100C7000364908700BE000203449087001203249E1
:100C8000487208464088C8800020087248800121C8
:100C90002A4801F0E7FB10BD10B501212C4801F0F6
:100CA000D0FB28B100F0FEFA0121294801F0DAFB5F
:100CB00010BD10B52021274801F082FD20B9082180
:100CC000244801F07DFD50B1224801F00FFDC4B26F
:100CD0002046FFF793FC20211E4801F07EFD4021B5
:100CE0001C4801F06DFD28B1FFF756FC4021194862
:100CF00001F073FD10BD10B52021174801F060FD13
:100D000020B90821144801F05BFD50B1124801F0F0
:100D1000EDFCC4B22046FFF7B6FC20210E4801F0DE
:100D20005CFD40210C4801F04BFD28B1FFF74DFC64
:100D30004021094801F051FD10BD000000040040B1
:100D40004C0000200000002056040020010000207C
:100D500000080040003801400044004010B56FF02A
:100D6000040001F0D7FD2D4800682D49B0FBF1F0DB
:100D70002C4908700846007800EB4001C1EBC01018
:100D80004FF6FF7101EAC0002749088010BD0146F7
:100D9000244A12784A434FF0E0235A6100229A61B4
:100DA0001A46126942F001021A6100BF4FF0E022B8
:100DB000106910F0010F02D010F4803FF6D04FF010
:100DC000E022126922F001024FF0E0231A610022B2
:100DD0009A6170470146144A12884A434FF0E02353
:100DE0005A6100229A611A46126942F001021A61A0
:100DF00000BF4FF0E022106910F0010F02D010F494
:100E0000803FF6D04FF0E022126922F001024FF04D
:100E1000E0231A6100229A61704700003800002028
:100E200000127A00020000200400002008B5012111
:100E3000042001F0F7FE3020ADF8000010208DF8FE
:100E4000030003208DF802006946494800F0B4FA17
:100E50001021474800F05BFB2021454800F057FB7C
:100E600008BD10B543480078002822DD42480078CC
:100E7000401E4149087008460078002819DC3F48A8
:100E8000007838B110213A4800F043FB00203B497C
:100E900008700BE01021364800F039FB3548007827
:100EA000401E34490870012034490870322032490C
:100EB000087010BD10B532480078002822DD314896
:100EC0000078401E2F49087008460078002819DC79
:100ED0002D48007838B12021254800F01AFB002069
:100EE000294908700BE02021214800F010FB24481C
:100EF0000078401E224908700120234908703220E2
:100F00002049087010BD10B5FFF7ABFFFFF7D2FF07
:100F10001E480078012812D11D480088401C1C4939
:100F2000088008460088B0F57A6F08DB1021104869
:100F300000F0EDFA002015490870154908801548A1
:100F40000078012812D114480088401C12490880FA
:100F500008460088B0F57A6F08DB2021044800F0CD
:100F6000D6FA00200B4908700B49088010BD00001C
:100F7000000801400E0000200600002007000020AD
:100F80000F000020080000200900002010000020B1
:100F90000A000020110000200C00002008B50121EB
:100FA000082001F03FFE4320ADF8000010208DF82E
:100FB000030003208DF8020069465C4800F0FCF94C
:100FC000A020ADF8000048208DF8030003208DF824
:100FD00002006946554800F0EFF90221534800F03D
:100FE00096FA0121514800F092FA02214F4800F090
:100FF00090FA1E20FFF7EEFE02214C4800F087FA1F
:1010000006204B49487300204A4908704FF47A7013
:10101000888008BD10B547480078022816D144489A
:10102000407B022802DA0220414948734048407B55
:101030006421484340490880084600883F490880A9
:1010400001203C4908704FF47A60488039480078A4
:1010500001283BD137484088002803DC002035496F
:10106000087048703348407801280ED131484088D4
:10107000B0F57A6F03D102212C4800F04AFA2D48CE
:101080004088401E2B4948801FE02A4840780228AB
:101090001BD128488088002812DC052028490870C8
:1010A0000320284908700121274800F001FF012092
:1010B0002649087000201F49087001202449087043
:1010C0001C488088401E1B49888010BD1B48008832
:1010D000002804DD19480088401E18490880194876
:1010E000007800BB1548008800281CDC18480078F0
:1010F00058B102210D4800F00CFA00201449087084
:101100000D4800880D4908800DE00221074800F0D5
:10111000FEF901200E4908700749088800EBD071DC
:101120004910064A118000BFCFE70000000C0140C3
:101130006008002018000020140000201200002089
:101140000F000020220000200008004023000020A3
:1011500016000020F0B50446104607E0C5B214F8AA
:10116000016B6E4033F8166086EA20200E1EA1F156
:101170000101F3DCF0BD70B502460B46002041F2E0
:10118000210419E0802114E010F4004F05D04FF63F
:10119000FF7505EA4000604003E04FF6FF7505EA81
:1011A000400015780D4200D060400D4601EBD57629
:1011B00071100029E8D1521C1D00A3F10103E1D1F7
:1011C00070BD70B504460D46074B4FF6FF722946B9
:1011D0002046FFF7BFFF70BD70B504460D46294697
:1011E0002046FFF7C8FF70BD362F000808B5012163
:1011F000042001F017FD4020ADF8000010208DF80C
:10120000030003208DF802006946354800F0D4F849
:10121000002034490870344908704FF47A7033491B
:10122000088008BD70B5054617E000240FE0402196
:101230002B4800F06CF90120FFF7CCFD4021284835
:1012400000F067F90120FFF7C5FD601CC4B2322C25
:10125000EDDB4FF49670FFF7BDFD2800A5F101010D
:101260008DB2E2D170BD2148008800B170471E48A0
:101270000078002814DD1E480078401E1C490870C4
:101280000846007800280BDC17480078401E1649F5
:1012900008704FF47A70154908803C201449087092
:1012A00000BFE3E710B511480088002816DD11489B
:1012B000007838B140210A4800F02BF900200D4990
:1012C000087006E04021064800F021F90120094994
:1012D000087006480088401E0449088010BD0000C0
:1012E00000080140230000202200002020000020F0
:1012F0001E0000201F00002010B50446CA4884428A
:1013000008D10121042001F0A7FC0021042001F0F4
:10131000A3FC46E0C548844208D10121082001F021
:101320009BFC0021082001F097FC3AE0C048844271
:1013300008D10121102001F08FFC0021102001F0C4
:101340008BFC2EE0BB48844208D10121202001F013
:1013500083FC0021202001F07FFC22E0B64884427B
:1013600008D10121402001F077FC0021402001F04C
:1013700073FC16E0B148844208D10121802001F0BD
:101380006BFC0021802001F067FC0AE0AC4884423D
:1013900007D10121801501F05FFC0021A01501F0AB
:1013A0005BFC10BD10B50121084601F055FC002181
:1013B000012001F051FC10BD2DE9F041024600254D
:1013C0000026002000230024002791F803C00CF021
:1013D0000F0591F803C01CF0100F03D091F802C064
:1013E0004CEA050591F800C0BCF1000F31D014683B
:1013F00000202BE04FF0010C0CFA00F3B1F800C014
:101400000CEA03069E4220D183004FF00F0C0CFA29
:1014100003F7BC4305FA03FC4CEA040491F803C04B
:10142000BCF1280F06D14FF0010C0CFA00FCC2F8F9
:1014300014C00AE091F803C0BCF1480F05D14FF089
:10144000010C0CFA00FCC2F810C0401C0828D1D3D3
:101450001460B1F800C0BCF1FF0F34DD5468002007
:101460002EE000F1080C4FF0010808FA0CF3B1F877
:1014700000C00CEA03069E4221D183004FF00F0CFE
:101480000CFA03F7BC4305FA03FC4CEA040491F898
:1014900003C0BCF1280F05D100F1080C08FA0CF8C4
:1014A000C2F8148091F803C0BCF1480F07D100F1D5
:1014B000080C4FF0010808FA0CF8C2F81080401C24
:1014C0000828CED35460BDE8F0814FF6FF7101804B
:1014D000022181700421C170704702460020936888
:1014E0000B4201D0012000E00020704701468868CF
:1014F00080B2704702460020D3680B4201D0012021
:1015000000E0002070470146C86880B27047016162
:101510007047416170470AB1016100E04161704765
:10152000C16070474FF480320A43826181618261F9
:1015300082698269704702460020424B18684FF664
:101540008073184040EA021008433E4B1860704711
:101550003D49C8617047F0B50A46002300240021C8
:10156000002500F00046B6F1004F02D1354EF1697A
:1015700001E0344E7168C0F3034583B200F44016B5
:10158000B6F5401F08D121F070612E4E766826F026
:1015900070662C4F7E6012E000F48016B6F5801F56
:1015A00006D1032606FA05F4A14341F0706106E076
:1015B000460D360103FA06F6B14341F0706122B1DF
:1015C000460D360103FA06F6314300F00046B6F147
:1015D000004F02D11B4EF16101E01A4E7160F0BD67
:1015E00030B500228B071C0F0F2303FA04F2154BB2
:1015F00008338C1053F824309343124C08348D1068
:1016000044F8253023468C1053F824308C07240FDF
:1016100000FA04F423430B4C08348D1044F82530B1
:1016200030BD0A490860704700080140000C0140C5
:10163000001001400014014000180140001C01404E
:10164000002001400000014000002042DC00204258
:1016500010B50446FE48844208D10121C01401F0AF
:10166000FBFA0021E01401F0F7FAC4E0B4F1804F76
:1016700008D10121084601F0FCFA0021012001F007
:10168000F8FAB8E0F348844208D10121022001F0C1
:10169000F0FA0021022001F0ECFAACE0EE488442BE
:1016A00008D10121042001F0E4FA0021042001F016
:1016B000E0FAA0E0E948844208D10121082001F0C5
:1016C000D8FA0021082001F0D4FA94E0E4488442DA
:1016D00008D10121102001F0CCFA0021102001F0E6
:1016E000C8FA88E0DF48844208D10121202001F0B7
:1016F000C0FA0021202001F0BCFA7CE0DA488442E4
:1017000008D10121401401F0A7FA0021601401F072
:10171000A3FA70E0D548844209D10121C80401F040
:101720009BFA00214FF4002001F096FA63E0D048C4
:10173000844209D10121080501F08EFA00214FF4FD
:10174000801001F089FA56E0CA48844209D101218B
:10175000480501F081FA00214FF4001001F07CFAF5
:1017600049E0C548844208D10121402001F081FAB6
:101770000021402001F07DFA3DE0C048844208D1BC
:101780000121802001F075FA0021802001F071FA1A
:1017900031E0BB48844208D10121801501F069FA8B
:1017A0000021A01501F065FA25E0B648844209D170
:1017B0000121080401F050FA00214FF4803001F0BB
:1017C0004BFA18E0B048844209D10121480401F0E5
:1017D00043FA00214FF4003001F03EFA0BE0AB4831
:1017E000844208D10121880401F036FA00214FF427
:1017F000802001F031FA10BD00220288944B9842FB
:101800000ED0994B98420BD0B0F1804F08D0914B3D
:10181000984205D0904B984202D0904B984204D108
:101820004FF68F731A404B881A438D4B984207D05E
:101830008C4B984204D04FF6FF431A40CB881A4392
:1018400002808B8883850B880385814B98420BD05F
:10185000854B984208D08B4B984205D08A4B9842D2
:1018600002D08A4B984201D10B7A038601238382EE
:10187000704770B5002400220023058C4FF6FE76D9
:1018800035400584028C8388048B4FF68F752C407D
:10189000B51E2C400D882C43751E2A400D892A4305
:1018A0004D882A436A4DA8420BD06F4DA84208D0FC
:1018B000744DA84205D0744DA84202D0734DA84281
:1018C00013D14FF6F7752A404D892A434FF6FB7521
:1018D0002A408D882A434FF6FF652B404FF6FF556F
:1018E0002B408D892B43CD892B4383800483CD8866
:1018F0008586028470BD70B5002400220023058C0B
:101900004FF6EF7635400584028C8388048B48F6C9
:10191000FF752C404FF6FF452C400D884FF6FF76A3
:1019200006EA05252C434FF6DF752A400D8906EAA5
:1019300005152A434D8806EA05152A43444DA84259
:1019400002D0494DA8421DD14FF67F752A404D89DE
:101950004FF6FF7606EA05152A434FF6BF752A4073
:101960008D8806EA05152A434FF6FF352B404FF2C6
:10197000FF752B408D8906EA85052B43CD8906EA44
:1019800085052B4383800483CD880587028470BD41
:1019900070B5002400220023058C4FF6FF66354009
:1019A0000584028C8388848B4FF68F752C404FF60C
:1019B000FC752C400D882C434FF6FF552A400D89AD
:1019C0004FF6FF7606EA05252A434D8806EA0525E7
:1019D0002A431F4DA84202D0234DA8421DD14FF2E9
:1019E000FF752A404D894FF6FF7606EA05252A4302
:1019F0004FF6FF352A408D8806EA05252A434EF624
:101A0000FF752B404DF6FF752B408D8906EA0515B5
:101A10002B43CD8906EA05152B4383808483CD882B
:101A20008587028470BD70B5002200230024058CD8
:101A30004EF6FF7635400584038C8488828B48F609
:101A4000FF752A404FF6FF452A400D8820E0000030
:101A5000002C01400004004000080040000C004041
:101A6000001000400014004000340140004C0140D0
:101A7000005001400054014000180040001C00408C
:101A80000020004000400140004401400048014067
:101A90004FF6FF7606EA05252A434DF6FF752B40E3
:101AA0000D8906EA05352B434D8806EA05352B439B
:101AB000FA4DA84202D0FA4DA84208D14BF6FF7564
:101AC0002C408D894FF6FF7606EA85152C438480DD
:101AD0008283CD88A0F84050038470BD828B4FF282
:101AE000FF331A408283828B4FF6FF7303EA012390
:101AF0001A4382837047F0B50C4615460022002138
:101B00000026078C4EF6FF7C07EA0C070784828BC1
:101B1000018C4FF6FF7707EA043640F6FF473A405C
:101B20004FF6FF7707EA05273A434FF6FF7707EAB4
:101B300003373A43D94FB8420ED0D94FB8420BD0F1
:101B4000B0F1804F08D0D74FB84205D0D64FB84239
:101B500002D0D64FB84206D14DF6FF77394046F451
:101B60008057394305E047F6FF57394044F4805722
:101B7000394382830184F0BD828B4FF6F3731A40A0
:101B80008283828B0A4382837047F0B50C461546E8
:101B9000002200210026078C4FF6FF6C07EA0C0795
:101BA0000784828B018C4FF6FF7707EA04264FF6F5
:101BB0000C773A404FF6FF7707EA03172F433A4373
:101BC000B64FB8420ED0B64FB8420BD0B0F1804FEE
:101BD00008D0B44FB84205D0B34FB84202D0B34F8B
:101BE000B84206D14FF6FF57394046F48077394363
:101BF00005E04FF2FF57394044F480773943828340
:101C00000184F0BD028B4FF2FF331A400283028B36
:101C10004FF6FF7303EA01231A4302837047F0B5BE
:101C20000C461546002200210026078C4FF6EF7C5B
:101C300007EA0C070784028B018C4FF6FF7707EA4F
:101C4000041640F6FF473A404FF6FF7707EA03379E
:101C50003A434FF6FF7707EA05273A438F4FB842DA
:101C60000ED08F4FB8420BD0B0F1804F08D08D4FBF
:101C7000B84205D08C4FB84202D08C4FB84206D142
:101C80004FF6DF77394046F01007394305E04FF64D
:101C90005F77394044F01007394302830184F0BD77
:101CA000028B4FF6F3731A400283028B0A430283BE
:101CB0007047F0B50C46154600220021068C4FF601
:101CC000FE773E400684028B018C4FF60C76324044
:101CD0007E1C06EA03162E433243704EB0420ED0ED
:101CE0006F4EB0420BD0B0F1804F08D06D4EB04275
:101CF00005D06D4EB04202D06C4EB04206D14FF6C8
:101D0000FD76314044F00106314305E04FF6F576AB
:101D1000314044F00106314302830184F0BD70B5C7
:101D200005460C465D4885420ED05D4885420BD085
:101D3000B5F1804F08D05B48854205D05A488542AE
:101D400002D05A48854200D100E000BF208850B937
:101D50002389A28861882846FFF7ABFFE1882846DF
:101D6000FFF79EFF25E0208804280AD12389A28856
:101D700061882846FFF753FFE1882846FFF742FFB6
:101D800017E0208808280AD12389A288618828467C
:101D9000FFF7FBFEE1882846FFF7EEFE09E0238906
:101DA000A28861882846FFF7A6FEE1882846FFF74B
:101DB00095FE70BD2DE9F04105460C460026012731
:101DC000608808B9022600E00026A088012801D119
:101DD000022700E001272088A0B92389A288618812
:101DE0002846FFF766FFE1882846FFF759FF238959
:101DF0003A4631462846FFF712FFE1882846FFF7AA
:101E000001FF13E02389A28861882846FFF707FFB6
:101E1000E1882846FFF7F6FE23893A4631462846F0
:101E2000FFF747FFE1882846FFF73AFFBDE8F0815A
:101E30000A884B881A438B881A43CB881A430B892C
:101E40001A434B891A438B891A43A0F844207047E0
:101E50004FF6FF71818000210180C18041800172B5
:101E600070470021018041808180C18001814181D2
:101E70008181C181704700210180418001218180E1
:101E80000021C18001817047002101804180818053
:101E9000C18001814181818170470000002C014097
:101EA000003401400004004000080040000C0040E5
:101EB00021B1028842F00102028004E002884FF65C
:101EC000FE731A400280704731B1B0F8442042F4EA
:101ED0000042A0F8442005E0B0F84420C2F30E020E
:101EE000A0F8442070471AB183890B43838102E034
:101EF00083898B43838170478182704741EA020363
:101F0000A0F8483070471AB183890B43838102E0FF
:101F100083898B438381704701894FF6F8721140A2
:101F2000018170470A46002101894FF68F731940DD
:101F300011430181704730B504460D4629462046BD
:101F4000FFF7F0FF208940F00700208130BD2DE928
:101F5000F04104460D4616461F46602D06D13B460D
:101F6000012231462046FFF75AFE05E03B4601229A
:101F700031462046FFF79DFE29462046FFF7D2FF57
:101F8000208940F007002081BDE8F08130B50C4683
:101F900000210189C9B24FF6FF7505EA03251543F3
:101FA00025432943018130BD2DE9F04105460E4608
:101FB00017469846002443463A4631462846FFF7DE
:101FC000E5FF2C894FF6F870044044F007044FF603
:101FD0008F70044044F070042C81BDE8F081F0B5AE
:101FE00004460D4616461F463B46324629462046C5
:101FF000FFF7CCFF208940F480402081F0BD0185AF
:10200000828270470A46002101884FF68F7319407B
:10201000114301807047F0B50C4615461E4600215D
:10202000002200230189028B038C4FF6F877394098
:1020300021434FF6FC473A4040F201173A434FF62E
:10204000DD773B404FF6FF7707EA06172F433B4308
:10205000018102830384F0BD0A460021018B4FF603
:102060008F7319401143018370470A460021018B89
:1020700048F6FF7319404FF6FF7303EA0223194332
:10208000018370470A460021818B4FF68F731940F8
:102090001143818370470A460021818B48F6FF7304
:1020A00019404FF6FF7303EA0223194381837047F7
:1020B00021B1028842F08002028004E002884FF6DB
:1020C0007F731A400280704721B1828842F0040277
:1020D000828004E082884FF6FB731A40828070474A
:1020E00021B1828842F00802828004E082884FF6A3
:1020F000F7731A408280704721B1828842F0010252
:10210000828004E082884FF6FE731A408280704716
:102110000A460021018B4FF6F773194011430183E2
:1021200070470A460021018B4FF2FF7319404FF6AA
:10213000FF7303EA02231943018370470A46002113
:10214000818B4FF6F77319401143818370470A461C
:102150000021818B4FF2FF7319404FF6FF7303EAA2
:1021600002231943818370470A460021018B4FF6F1
:10217000FB7319401143018370470A460021018B0C
:102180004FF6FF3319404FF6FF7303EA022319435A
:10219000018370470A460021818B4FF6FB7319407B
:1021A0001143818370470A460021818B4FF6FF332C
:1021B00019404FF6FF7303EA0223194381837047E6
:1021C0000A460021018B4FF67F73194011430183AA
:1021D00070470A460021018BC1F30E014FF6FF73D1
:1021E00003EA02231943018370470A460021818BC9
:1021F0004FF67F7319401143818370470A460021CF
:10220000818BC1F30E014FF6FF7303EA02231943DA
:10221000818370470A460021018C4FF6FD731940F7
:102220001143018470470A460021018C4FF6F77371
:1022300019401143018470470A460021018C4FF672
:10224000DF7319404FF6FF7303EA02131943018449
:1022500070470A460021018C4FF67F7319404FF6F4
:10226000FF7303EA02131943018470470A460021F1
:10227000018C4FF6FF5319404FF6FF7303EA022318
:102280001943018470470A460021018C4FF2FF7305
:1022900019404FF6FF7303EA022319430184704784
:1022A0000A460021018C4DF6FF7319404FF6FF736B
:1022B00003EA023319430184704730B50023012437
:1022C0008C40A3B2048C9C430484048C02FA01F574
:1022D000ADB22C43048430BD30B5002304248C40BF
:1022E000A3B2048C9C430484048C02FA01F5ADB2C1
:1022F0002C43048430BD70B50346002000241846EA
:10230000183001258D40ACB21D8CA5431D8409B148
:10231000082909D100EB6100056825F0700505600A
:102320000568154305600EE00D1FC5F34E052844F2
:10233000056825F4E045056005684FF6FF7606EA76
:1023400002263543056070BD21B1028842F00202C9
:10235000028004E002884FF6FD731A400280704745
:1023600021B1028842F00402028004E002884FF6A4
:10237000FB731A400280704721B1828842F08002CC
:10238000828004E082884FF67F731A408280704713
:1023900002884FF6F7731A40028002880A430280CF
:1023A000704782884FF68F731A40828082880A4372
:1023B0008280704702894FF6F8731A4002810289C1
:1023C0000A430281704702894FF67F731A400281E7
:1023D00002890A4302817047818470478185704772
:1023E000818670470187704781877047A0F8401049
:1023F000704702884FF6FF431A40028002880A4362
:10240000028070470146888E70470146088F7047EA
:102410000146888F70470146B1F840007047014679
:10242000888C70470146088D704702460020138A49
:102430000B4201D0012000E000207047CA43028215
:10244000704730B50246002000230024158A05EAB3
:102450000103958905EA010413B10CB1012000E0E4
:10246000002030BDCA4302827047000010B5044608
:10247000FB48844209D10121880300F0EDFB0021D3
:102480004FF4804000F0E8FB32E0F648844209D186
:102490000121480400F0EDFB00214FF4003000F072
:1024A000E8FB25E0F048844209D10121880400F0CE
:1024B000E0FB00214FF4802000F0DBFB18E0EB484C
:1024C000844209D10121C80400F0D3FB00214FF45C
:1024D000002000F0CEFB0BE0E548844208D101214A
:1024E000080500F0C6FB00214FF4801000F0C1FB8E
:1024F00010BD2DE9F04786B005460E460024A246E1
:1025000000BFA1460027B08900B100BF2F462C8A2A
:102510004CF6FF700440F08804432C82AC894EF6E0
:10252000F3100440B088318908437189084304439B
:10253000AC81AC8A4FF6FF400440B0890443AC82C2
:1025400001A800F002FBC648874202D1DDF810A0C6
:1025500001E0DDF80CA0A88910F4004F08D00AEBC8
:10256000CA0000EB0A1031684900B0FBF1F807E03F
:102570000AEBCA0000EB0A1031688900B0FBF1F8E1
:102580006420B8FBF0F004012009642101FB1089EC
:10259000A88910F4004F08D0322000EBC900B0FB2E
:1025A000F1F000F00700044308E0322000EB0910CE
:1025B0006421B0FBF1F000F00F0004432C8106B061
:1025C000BDE8F0874FF41651016000218180C18081
:1025D00001810C21418100218181704710B50246A3
:1025E0000020108A4FF2FF0318400B884C882343C9
:1025F0008C882343CC8823431843108210BD0021CC
:10260000018041808180C180704721B1828942F47C
:102610000052828104E082894DF6FF731A40828164
:102620007047F0B503460024002600250020A1F5E0
:1026300010676A3F00D100BF1846C1F3421401F091
:102640001F06012707FA06F5012C01D10C3004E022
:10265000022C01D1103000E014301AB107682F436A
:10266000076002E00768AF430760F0BD1AB1838AD4
:102670000B43838202E0838A8B4383827047028A02
:102680004FF6F0731A400282028A0A4302827047B0
:1026900082894FF2FF731A40828182890A438281C4
:1026A000704721B1828942F00202828104E082896E
:1026B0004FF6FD731A4082817047028A4FF6DF732E
:1026C0001A400282028A0A430282704721B1028ABA
:1026D00042F48042028204E0028A4BF6FF731A4001
:1026E00002827047C1F308028280704701468888E1
:1026F000C0F308007047818941F001018181704772
:10270000028BD2B20283028B42EA0122028370471B
:10271000028B02F47F420283028B0A4302837047DA
:1027200021B1828A42F02002828204E0828A4FF63E
:10273000DF731A408282704721B1828A42F0100210
:10274000828204E0828A4FF6EF731A4082827047D9
:1027500021B1828A42F00802828204E0828A4FF626
:10276000F7731A408282704721B1828942F4004295
:10277000828103E08289C2F30E028281704721B117
:10278000828A42F40062828204E0828A4FF2FF73FE
:102790001A4082827047828A4FF6FB731A40828207
:1027A000828A0A438282704721B1828A42F0020201
:1027B000828204E0828A4FF6FD731A40828270475B
:1027C00002460020B1F5007F00D100BF13880B4204
:1027D00001D0012000E00020704701F40072B2F542
:1027E000007F00D100BFCA430280704770B5024627
:1027F0000024002300250020A1F510666A3E00D1C8
:1028000000BFC1F3421501F01F03012606FA03F3CE
:10281000012D02D19689334006E0022D02D1168A9D
:10282000334001E0968A33400C12012606FA04F484
:102830001688344013B10CB1012000E0002070BDB7
:1028400010B500220023A1F510646A3C00D100BF3E
:102850000A1201249440A3B2DC43048010BD00009E
:10286000003801400044004000480040004C004057
:102870000050004031490143314A1160704770B542
:10288000002100230F22C4780CB32D4C246804F4DB
:10289000E064C4F5E064210AC1F10403CA4044784D
:1028A00004FA03F18478144021430901254C067889
:1028B000A155047804F01F050124AC4005786D1182
:1028C0004FF0E02606EB8505C5F8004109E00478E5
:1028D00004F01F050124AC401B4D0678761145F825
:1028E000264070BD194A0A400243154B1B1F1A604F
:1028F000704739B1124A121D12680243104B1B1D5A
:102900001A6006E00E4A121D126882430C4B1B1D12
:102910001A607047042808D14FF0E021096941F09E
:1029200004014FF0E022116107E04FF0E021096956
:1029300021F004014FF0E022116170470000FA0518
:102940000CED00E000E400E080E100E080FFFF1F0C
:10295000DD48006840F00100DB4908600846406837
:10296000DA490840D849486008460068D849084014
:10297000D54908600846006820F4802008600846B1
:10298000406820F4FE0048604FF41F0088607047E4
:10299000CD49096821F48031CB4A1160114609689C
:1029A00021F480211160B0F5803F03D0B0F5802F75
:1029B0000ED106E0C449096841F48031C24A116071
:1029C00007E0C149096841F4A021BF4A116000E055
:1029D00000BF00BF704710B5014600220023002051
:1029E0004A11012A02D1B84C236806E0022A02D11A
:1029F000B54C236A01E0B44C636A01F01F02012464
:102A000094401C4201D0012000E0002010BD38B5E8
:102A1000002000900024002500BF3120FFF7DBFFDD
:102A200005460098401C00900098B0F5A06F01D0BA
:102A3000002DF2D03120FFF7CEFF08B1012400E0D5
:102A40000024204638BD014600209F4A106820F02F
:102A5000F80040EAC100106070479E490860704766
:102A600002460020984B586820F47C1042EA01038B
:102A70001843954B58607047964908667047014661
:102A80000020914A506820F00300084350607047CE
:102A90008D48406800F00C007047014600208A4ACB
:102AA000506820F0F0000843506070470146002055
:102AB000854A506820F4E060084350607047014642
:102AC0000020814A506820F4605040EAC100506004
:102AD000704729B17C4A527A02437B4B5A7204E018
:102AE000794A527A8243784B5A7270477A49086021
:102AF000704701460020744A506820F44040084363
:102B0000506070470021754A11706F4A82F820109A
:102B1000012802D0042808D103E001216F4A117076
:102B200004E005216D4A117000E000BF00BF70474E
:102B30006B49086070476449096A0143624A11623F
:102B40007047674944390860704730B5002100225A
:102B5000002400235C4D6D6805F00C0121B10429AF
:102B600005D0082923D105E05E4D056022E05D4DCA
:102B700005601FE0544D6D6805F47012524D6D688C
:102B800005F48034022505EB92421CB9564D55439D
:102B900005600BE04C4D6D6815F4003F03D0524DBD
:102BA0005543056002E04F4D5543056002E04D4D31
:102BB000056000BF00BF444D6D6805F0F0010909D4
:102BC0004A4D6B5C0568DD4045603F4D6D6805F41E
:102BD000E061090A454D6B5C4568DD4085603A4D12
:102BE0006D6805F46051C90A404D6B5C4568DD4075
:102BF000C560354D6D6805F44041890B3C4D6B5CFB
:102C0000C568B5FBF3F5056130BD29B12E4A52699F
:102C100002432D4B5A6104E02B4A526982432A4BEE
:102C20005A61704729B1284A92690243264B9A613A
:102C300004E0254A92698243234B9A61704729B187
:102C4000214AD2690243204BDA6104E01E4AD2696C
:102C500082431D4BDA61704729B11B4AD268024397
:102C6000194BDA6004E0184AD2688243164BDA60E6
:102C7000704729B1144A12690243134B1A6104E0E8
:102C8000114A12698243104B1A6170471449403946
:102C9000086070470F49C86470470B49C871704796
:102CA0000948406A40F08070074948627047014611
:102CB0000020054A92680A4201D0012000E000206D
:102CC0007047014988727047001002400000FFF809
:102CD000FFFFF6FE00004242D800424220100240B0
:102CE0008004424200127A0000093D0024000020C6
:102CF000340000200CB50020019000906B48006863
:102D000040F480306949086000BF6848006800F4FA
:102D1000003000900198401C0190009818B901986B
:102D2000B0F5A06FF1D16148006810F4003F02D007
:102D30000120009001E0002000900098012842D17D
:102D40005B48006840F01000594908600846006878
:102D500020F0030008600846006840F002000860A8
:102D600052484068514948600846406848600846F3
:102D7000406840F4806048600846406820F47C1059
:102D800048600846406840F4E8104860084600681B
:102D900040F08070086000BF4448006810F0007F79
:102DA000FAD04248406820F0030040494860084695
:102DB000406840F00200486000BF3C48406800F0B6
:102DC0000C000828F9D10CBD10B5FFF793FF10BD1A
:102DD00010B53648006840F00100344908600846E4
:102DE0004068344908403149486008460068324923
:102DF00008402E4908600846006820F480200860DA
:102E00000846406820F4FE0048604FF41F008860C8
:102E1000FFF7DAFF4FF000602849086010BD10B5D9
:102E2000002100200022214B5B6803F00C0121B13E
:102E3000042906D0082928D107E0214B214C236022
:102E400027E01F4B1F4C236023E0184B5B6803F403
:102E50007010164B5B6803F48032022303EB904042
:102E600022B9194B4343174C23600DE00F4B5B68AD
:102E700013F4003F04D0144B4343124C236003E08F
:102E80000F4B43430F4C236003E00D4B0D4C23606D
:102E900000BF00BF054B5B68C3F303130B4CE15C41
:102EA000084B1B68CB40074C236010BD001002404C
:102EB000002002400000FFF8FFFFF6FE08ED00E0F2
:102EC00000127A003800002000093D003C0000207C
:102ED0000648804706480047FEE7FEE7FEE7FEE7B4
:102EE000FEE7FEE7FEE7FEE7FEE7FEE7D12D00087E
:102EF000ED000008064C074D06E0E06840F00103D5
:102F000094E8070098471034AC42F6D3FDF7F2F886
:102F1000383100085831000802E008C8121F08C103
:102F2000002AFAD170477047002001E001C1121F4A
:102F3000002AFBD170470000C1C081C1400101C31C
:102F4000C003800241C201C6C006800741C7000518
:102F5000C1C581C4400401CCC00C800D41CD000F1F
:102F6000C1CF81CE400E000AC1CA81CB400B01C93E
:102F7000C009800841C801D8C018801941D9001B78
:102F8000C1DB81DA401A001EC1DE81DF401F01DD96
:102F9000C01D801C41DC0014C1D481D5401501D76F
:102FA000C017801641D601D2C012801341D3001140
:102FB000C1D181D0401001F0C030803141F10033E7
:102FC000C1F381F240320036C1F681F7403701F596
:102FD000C035803441F4003CC1FC81FD403D01FF1F
:102FE000C03F803E41FE01FAC03A803B41FB0039C0
:102FF000C1F981F840380028C1E881E9402901EB96
:10300000C02B802A41EA01EEC02E802F41EF002D17
:10301000C1ED81EC402C01E4C024802541E500276E
:10302000C1E781E640260022C1E281E3402301E1BD
:10303000C021802041E001A0C060806141A1006307
:10304000C1A381A240620066C1A681A7406701A515
:10305000C065806441A4006CC1AC81AD406D01AF1E
:10306000C06F806E41AE01AAC06A806B41AB00693F
:10307000C1A981A840680078C1B881B9407901BB75
:10308000C07B807A41BA01BEC07E807F41BF007D97
:10309000C1BD81BC407C01B4C074807541B500776E
:1030A000C1B781B640760072C1B281B3407301B13D
:1030B000C071807041B00050C19081914051019326
:1030C000C053805241920196C05680574197005597
:1030D000C19581944054019CC05C805D419D005F1E
:1030E000C19F819E405E005AC19A819B405B0199BD
:1030F000C059805841980188C04880494189004B97
:10310000C18B818A404A004EC18E818F404F018D14
:10311000C04D804C418C0044C1848185404501876D
:10312000C047804641860182C042804341830041BE
:10313000C18181804040000058310008000000201B
:103140004C000000182F0008A43100084C0000209B
:10315000240C0000282F00080000000000003201AD
:103160003201000000000000000058025802000078
:103170000000000000003C00000000000000000013
:1031800001020304010203040607080902040608F9
:1031900000A24A0400000000000000000102030435
:0431A000060708090D
:04000005080000ED02
:00000001FF
